:020000040800F2
:1000000098060020D101000831060008AB05000861
:100010002D06000879040008710A0008000000009D
:10002000000000000000000000000000BD07000804
:100030007D04000800000000A5060008D1080008A3
:10004000EB010008EB010008EB010008EB010008E0
:10005000EB010008EB010008EB010008EB010008D0
:10006000EB010008EB010008EB010008EB010008C0
:10007000EB010008EB010008EB010008EB010008B0
:10008000EB010008EB010008EB010008EB010008A0
:10009000EB010008EB010008EB010008EB01000890
:1000A000EB010008EB010008EB010008EB01000880
:1000B000EB010008EB010008EB010008EB01000870
:1000C000EB010008EB010008EB010008EB01000860
:1000D000EB010008EB010008EB010008EB01000850
:1000E000EB010008EB010008EB010008EB01000840
:1000F000EB010008EB010008EB010008EB01000830
:10010000EB010008EB010008EB010008EB0100081F
:10011000EB010008EB010008EB010008EB0100080F
:10012000EB010008EB010008EB010008EB010008FF
:1001300000F002F800F03CF80AA090E8000C8244BD
:100140008344AAF10107DA4501D100F031F8AFF29A
:10015000090EBAE80F0013F0010F18BFFB1A43F0A5
:1001600001031847240C0000440C0000103A24BF7F
:1001700078C878C1FAD8520724BF30C830C144BF0C
:1001800004680C607047000000230024002500264E
:10019000103A28BF78C1FBD8520728BF30C148BFEA
:1001A0000B607047002070471FB51FBD10B510BD14
:1001B00000F032F91146FFF7F7FF00F0BBFC00F04A
:1001C00050F903B4FFF7F2FF03BC00F05AFC000043
:1001D0000948804709480047FEE7FEE7FEE7FEE7DB
:1001E000FEE7FEE7FEE7FEE7FEE7FEE70448054917
:1001F000054A064B70470000D50800083101000889
:100200009800002098060020980200209802002004
:10021000704700000FB4044910B503AA029800F01B
:1002200021F810BC5DF814FB3400002070477047C3
:100230007047704701694A1C02610878704700B531
:100240008FB0CDE901310021059105497944CDE90F
:1002500003101146684600F017F80FB000BD00000B
:10026000E5FFFFFF074B70B50D467B44FFF7E7FF47
:100270000446284600F0CCF810B14FF0FF3070BDB6
:10028000204670BDAB0800002DE9F05F89460446AA
:100290004FF0000ADFF874B1FB44C0F820A02046FC
:1002A000E1688847002874D0252806D0D4E90121C8
:1002B0009047206A401C2062F1E700265F462046F6
:1002C000E16888472028054607DB312D05D27819DB
:1002D00010F8200C08B10643F1E7B00701D526F06D
:1002E0000406C4F81CA00027C4F818A02A2D09D0C1
:1002F000284600F0BFFB38B304EB8708303DC8F850
:10030000185019E059F8041B204604EB870291614C
:10031000E1688847012F054618D1E069002820DAF6
:1003200026F020061DE0D8F8180000EB800005EB51
:1003300040003038C8F818002046E1688847054674
:1003400000F098FB0028EED1012F0AD02E2D08D105
:100350002046E16888477F1C0546022F46F02006AC
:10036000C4DBA069002803DA404246F00106A06120
:10037000F00701D026F010066C2D0BD0682D09D0A7
:100380004C2D39D06A2D35D0742D35D07A2D33D0FF
:1003900016E038E0E1682F4620468847B842054617
:1003A00009D16C2F26D04FF48060E16806432046C7
:1003B0008847054604E06C2F1AD04FF4807006433E
:1003C0000DB3A5F14100192802D8203546F4006686
:1003D0004A462946204626604E46FFF7E3FE80B196
:1003E00001280BD0F61D26F0070000F1080956E79A
:1003F0004020E4E78020D8E70020D6E706F1040992
:100400004DE7284652E7206ABDE8F09FD80A000071
:10041000007B00F080007047754600F029F8AE467A
:1004200005006946534620F00700854618B020B500
:10043000FFF7DCFEBDE820404FF000064FF000075C
:100440004FF000084FF0000B21F00701AC46ACE87C
:10045000C009ACE8C009ACE8C009ACE8C0098D46E9
:1004600070470446AFF300802046FFF7AAFE000065
:10047000004870473800002000BFFEE770472DE9B4
:10048000F04102460025002600200023002400271A
:1004900091F803C00CF00F0591F803C00CF0100C9C
:1004A000BCF1000F03D091F802C04CEA050591F8A9
:1004B00000C0BCF1000F31D0146800202BE04FF0D9
:1004C000010C0CFA00F3B1F800C00CEA03069E42DE
:1004D00020D183004FF00F0C0CFA03F7BC4305FA50
:1004E00003FC4CEA040491F803C0BCF1280F06D1C8
:1004F0004FF0010C0CFA00FCC2F814C00AE091F8AD
:1005000003C0BCF1480F05D14FF0010C0CFA00FC00
:10051000C2F810C0401C0828D1D31460B1F800C044
:10052000BCF1FF0F34DD546800202EE000F1080C10
:100530004FF0010808FA0CF3B1F800C00CEA03060A
:100540009E4221D183004FF00F0C0CFA03F7BC43FD
:1005500005FA03FC4CEA040491F803C0BCF1280F2F
:1005600005D100F1080C08FA0CF8C2F8148091F8D3
:1005700003C0BCF1480F07D100F1080C4FF001088F
:1005800008FA0CF8C2F81080401C0828CED354603A
:10059000BDE8F0810246002093680B400BB10120BA
:1005A00000E0002070470161704700BFFEE70000D7
:1005B00010B5044614B10120194908701848007894
:1005C000F8B101211748FFF7E5FF012804D01021F9
:1005D0001548FFF7DFFFA0B90A2000F077FA0020E6
:1005E0000F49087001210F48FFF7D4FF012801D1FE
:1005F000022010BD10210C48FFF7CCFF70B903207A
:10060000F7E701210748FFF7C5FF38B91021064871
:10061000FFF7C0FF012801D1014908700020E8E779
:100620002C000020000801400018014000BFFEE738
:100630007047000070B5002100230F22C47804B376
:10064000154C246804F4E064C4F5E064210AC1F1A7
:100650000403CA40447804FA03F184781440214327
:1006600009010E4C0678A155047804F01F050124F9
:10067000AC4005786D11AD0005F1E025C5F80041ED
:1006800009E0047804F01F050124AC40044D06780D
:10069000761145F8264070BD0CED00E000E400E066
:1006A00080E100E07047000029B1064AD2690243A8
:1006B000044BDA6104E0034AD2698243014BDA61F8
:1006C000704700000010024029B1064A92690243B7
:1006D000044B9A6104E0034A92698243014B9A6198
:1006E000704700000010024030B5002100220024B5
:1006F00000232D4D6D6805F00C0121B1042905D0B2
:10070000082923D105E0294D056022E0274D056029
:100710001FE0254D6D6805F47012234D6D6805F4DA
:100720008034022505EB92421CB9214D55430560EA
:100730000BE01D4D6D6805F400351DB11C4D554392
:10074000056002E0194D5543056002E0174D056054
:1007500000BF00BF144D6D6805F0F0010909154D8B
:100760006B5C0568DD4045600F4D6D6805F4E06128
:10077000090A104D6B5C4568DD4085600A4D6D6867
:1007800005F46051C90A0B4D6B5C4568DD40C560DE
:10079000054D6D6805F44041890B074D6B5CC568DC
:1007A000B5FBF3F5056130BD0010024000127A0080
:1007B00000093D001800002028000020704710B5F7
:1007C00000F002F810BD00000CB500200190009070
:1007D0003348006840F480303149086000BF304839
:1007E000006800F4003000900198401C01900098CF
:1007F00018B90198B0F5A06FF1D12948006800F44C
:10080000003010B10120009001E00020009000981D
:10081000012843D12348006840F0100021490860B6
:100820000846006820F0030008600846006840F0B1
:10083000020008601A484068194948600846406844
:1008400048600846406840F4806048600846406858
:1008500020F47C1048600846406840F4E810486086
:100860000846006840F08070086000BF0C480068CF
:1008700000F000700028F9D00948406820F003001B
:10088000074948600846406840F00200486000BFE1
:100890000348406800F00C000828F9D10CBD0000A6
:1008A0000010024000200240042808D14FF0E0214F
:1008B000096941F004014FF0E022116107E04FF0B7
:1008C000E021096921F004014FF0E0221161704735
:1008D0007047000010B51348006840F0010011494E
:1008E000086008464068104908400E4948600846BC
:1008F00000680E4908400B4908600846006820F46B
:10090000802008600846406820F4FE0048604FF4EC
:100910001F008860FFF753FF4FF000600449086034
:1009200010BD0000001002400000FFF8FFFFF6FEBF
:1009300008ED00E021B1828942F40052828104E096
:1009400082894DF6FF731A4082817047F0B50346E5
:10095000002400260025002040F66A17B94200D185
:1009600000BF1846C1F3421401F01F06012707FA21
:1009700006F5012C01D10C3004E0022C01D110301D
:1009800000E014301AB107682F43076002E00768DF
:10099000AF430760F0BD00002DE9F04786B0054683
:1009A0000E460024A24600BFA1460027B08900B130
:1009B00000BF2F462C8A4CF6FF700440F088044399
:1009C0002C82AC894EF6F3100440B088318908437C
:1009D000718908430443AC81AC8A4FF6FF40044060
:1009E000B0890443AC8201A8FFF77EFE1F4887420E
:1009F00002D1DDF810A001E0DDF80CA0A88900F418
:100A0000004040B10AEBCA0000EB0A10316849000F
:100A1000B0FBF1F807E00AEBCA0000EB0A103168FE
:100A20008900B0FBF1F86420B8FBF0F00401200964
:100A3000642101FB1089A88900F4004040B13220F4
:100A400000EBC900B0FBF1F000F00700044308E040
:100A5000322000EB09106421B0FBF1F000F00F0030
:100A600004432C8106B0BDE8F08700000038014047
:100A700000BFFEE730380A2801D20120704700206D
:100A80007047014600BF704710B56FF00400FFF7D4
:100A90000BFF0A4800680A49B0FBF1F009490870E9
:100AA0000846007800EB4001C1EBC0104FF6FF7123
:100AB00001EAC0000449088010BD000000000020C9
:100AC00000127A0014000020160000200146114A8E
:100AD00012884A434FF0E0235A6100229A611A4675
:100AE000126942F001021A6100BF4FF0E022106962
:100AF00000F001021AB100F48032002AF5D04FF064
:100B0000E022126922F001024FF0E0231A61002274
:100B10009A6170471600002000BF054A128802F053
:100B20004002002AF9D0C2B2014B1B1D1A80704747
:100B30000044004070B50025FFF7A6FF00F062F802
:100B400000F042F800F078F8002019490860012010
:100B50001849C1F8940127E00020FFF729FD044659
:100B6000022C00D121E0032C00D11EE0681C85B2CC
:100B70000A20FFF7ABFF322D15D10D48006808B9E8
:100B8000012000E000200A4908600A48D0F89401DA
:100B900008B9012000E000200549091F086006A0EF
:100BA000FFF738FB002500BFD6E700BF002070BD6F
:100BB00098012342000023424350552072756E6E07
:100BC000696E672E2E2E0A0008B501214420FFF71A
:100BD0007BFD1020ADF8000048208DF80300694629
:100BE0000648FFF74CFC0120ADF8000028208DF8E6
:100BF000030069460248FFF742FC08BD00180140A7
:100C00000008014008B501214020FFF75DFD60208C
:100C1000ADF8000010208DF8030003208DF80200CD
:100C200069460448FFF72BFC60210248FFF7BBFC34
:100C300008BD00000018014000B587B0012144F252
:100C40000400FFF741FD4FF40070ADF818000320D9
:100C50008DF81A0018208DF81B0006A94248FFF7EE
:100C60000EFC4FF48060ADF8180004208DF81B00D6
:100C700006A93D48FFF703FC25208DF8040003205A
:100C80008DF805008DF8060001208DF8070001A8F9
:100C9000FFF7D0FC4FF4E13002900020ADF80C00DB
:100CA000ADF80E00ADF81000ADF814000C20ADF852
:100CB000120002A92D48FFF76FFE012240F22551D4
:100CC0002A48FFF743FE01212848FFF733FE0121A0
:100CD0004804FFF7E9FC01210420FFF7F5FC04209C
:100CE000ADF8180003208DF81A0018208DF81B00AD
:100CF00006A91D48FFF7C3FB0820ADF81800042023
:100D00008DF81B0006A91848FFF7B9FB26208DF8BF
:100D1000040003208DF8050000208DF80600012056
:100D20008DF8070001A8FFF785FC4FF4E130029031
:100D30000020ADF80C00ADF80E00ADF81000ADF8D5
:100D400014000C20ADF8120002A90948FFF724FE98
:100D5000012240F225510648FFF7F8FD0121044821
:100D6000FFF7E8FD07B000BD000801400038014072
:100D700000440040040000080000000000000002E1
:100D80000001000010000000A80D00080000002075
:100D9000380000006C010008E00D00083800002059
:100DA000600600008801000800A24A04000000005C
:100DB000000000000102030406070809000000000B
:100DC00000000000010203040102030406070809F1
:100DD00002040608010000000000000000000000FE
:04000005080001D11D
:00000001FF
